{
  "contractName": "ColdChain",
  "abi": [
    {
      "anonymous": false,
      "inputs": [
        {
          "indexed": false,
          "internalType": "address",
          "name": "entityId",
          "type": "address"
        },
        {
          "indexed": false,
          "internalType": "string",
          "name": "entityMode",
          "type": "string"
        }
      ],
      "name": "AddEntityEvent",
      "type": "event"
    },
    {
      "anonymous": false,
      "inputs": [
        {
          "indexed": false,
          "internalType": "uint256",
          "name": "vaccineBatchId",
          "type": "uint256"
        },
        {
          "indexed": true,
          "internalType": "address",
          "name": "manufacturer",
          "type": "address"
        }
      ],
      "name": "AddVaccineBatchEvent",
      "type": "event"
    },
    {
      "anonymous": false,
      "inputs": [
        {
          "indexed": true,
          "internalType": "address",
          "name": "issuer",
          "type": "address"
        },
        {
          "indexed": true,
          "internalType": "address",
          "name": "prover",
          "type": "address"
        },
        {
          "indexed": false,
          "internalType": "uint256",
          "name": "certificateId",
          "type": "uint256"
        }
      ],
      "name": "IssueCertificateEvent",
      "type": "event"
    },
    {
      "inputs": [],
      "name": "MAX_CERTIFICATIONS",
      "outputs": [
        {
          "internalType": "uint256",
          "name": "",
          "type": "uint256"
        }
      ],
      "stateMutability": "view",
      "type": "function",
      "constant": true
    },
    {
      "inputs": [
        {
          "internalType": "uint256",
          "name": "",
          "type": "uint256"
        }
      ],
      "name": "certificateIds",
      "outputs": [
        {
          "internalType": "uint256",
          "name": "",
          "type": "uint256"
        }
      ],
      "stateMutability": "view",
      "type": "function",
      "constant": true
    },
    {
      "inputs": [
        {
          "internalType": "uint256",
          "name": "",
          "type": "uint256"
        }
      ],
      "name": "certificates",
      "outputs": [
        {
          "internalType": "uint256",
          "name": "id",
          "type": "uint256"
        },
        {
          "components": [
            {
              "internalType": "address",
              "name": "id",
              "type": "address"
            },
            {
              "internalType": "enum ColdChain.Mode",
              "name": "mode",
              "type": "uint8"
            },
            {
              "internalType": "uint256[]",
              "name": "certificateIds",
              "type": "uint256[]"
            }
          ],
          "internalType": "struct ColdChain.Entity",
          "name": "issuer",
          "type": "tuple"
        },
        {
          "components": [
            {
              "internalType": "address",
              "name": "id",
              "type": "address"
            },
            {
              "internalType": "enum ColdChain.Mode",
              "name": "mode",
              "type": "uint8"
            },
            {
              "internalType": "uint256[]",
              "name": "certificateIds",
              "type": "uint256[]"
            }
          ],
          "internalType": "struct ColdChain.Entity",
          "name": "prover",
          "type": "tuple"
        },
        {
          "internalType": "bytes",
          "name": "signature",
          "type": "bytes"
        },
        {
          "internalType": "enum ColdChain.Status",
          "name": "status",
          "type": "uint8"
        }
      ],
      "stateMutability": "view",
      "type": "function",
      "constant": true
    },
    {
      "inputs": [
        {
          "internalType": "address",
          "name": "",
          "type": "address"
        }
      ],
      "name": "entities",
      "outputs": [
        {
          "internalType": "address",
          "name": "id",
          "type": "address"
        },
        {
          "internalType": "enum ColdChain.Mode",
          "name": "mode",
          "type": "uint8"
        }
      ],
      "stateMutability": "view",
      "type": "function",
      "constant": true
    },
    {
      "inputs": [
        {
          "internalType": "uint256",
          "name": "",
          "type": "uint256"
        }
      ],
      "name": "vaccineBatchIds",
      "outputs": [
        {
          "internalType": "uint256",
          "name": "",
          "type": "uint256"
        }
      ],
      "stateMutability": "view",
      "type": "function",
      "constant": true
    },
    {
      "inputs": [
        {
          "internalType": "uint256",
          "name": "",
          "type": "uint256"
        }
      ],
      "name": "vaccineBatches",
      "outputs": [
        {
          "internalType": "uint256",
          "name": "id",
          "type": "uint256"
        },
        {
          "internalType": "string",
          "name": "brand",
          "type": "string"
        },
        {
          "internalType": "address",
          "name": "manufacturer",
          "type": "address"
        }
      ],
      "stateMutability": "view",
      "type": "function",
      "constant": true
    },
    {
      "inputs": [
        {
          "internalType": "address",
          "name": "_id",
          "type": "address"
        },
        {
          "internalType": "string",
          "name": "m_mode",
          "type": "string"
        }
      ],
      "name": "addEntity",
      "outputs": [],
      "stateMutability": "nonpayable",
      "type": "function"
    },
    {
      "inputs": [
        {
          "internalType": "string",
          "name": "m_brand",
          "type": "string"
        },
        {
          "internalType": "address",
          "name": "_manufacturer",
          "type": "address"
        }
      ],
      "name": "addVaccineBatch",
      "outputs": [
        {
          "internalType": "uint256",
          "name": "",
          "type": "uint256"
        }
      ],
      "stateMutability": "nonpayable",
      "type": "function"
    },
    {
      "inputs": [
        {
          "internalType": "address",
          "name": "_issuer",
          "type": "address"
        },
        {
          "internalType": "address",
          "name": "_prover",
          "type": "address"
        },
        {
          "internalType": "string",
          "name": "m_status",
          "type": "string"
        },
        {
          "internalType": "uint256",
          "name": "vaccineBatchId",
          "type": "uint256"
        },
        {
          "internalType": "bytes",
          "name": "m_signature",
          "type": "bytes"
        }
      ],
      "name": "issueCertificate",
      "outputs": [
        {
          "internalType": "uint256",
          "name": "",
          "type": "uint256"
        }
      ],
      "stateMutability": "nonpayable",
      "type": "function"
    },
    {
      "inputs": [
        {
          "internalType": "bytes32",
          "name": "message",
          "type": "bytes32"
        },
        {
          "internalType": "uint256",
          "name": "id",
          "type": "uint256"
        },
        {
          "internalType": "address",
          "name": "issuer",
          "type": "address"
        }
      ],
      "name": "isMatchingSignature",
      "outputs": [
        {
          "internalType": "bool",
          "name": "",
          "type": "bool"
        }
      ],
      "stateMutability": "view",
      "type": "function",
      "constant": true
    }
  ],
  "bytecode": "0x608060405234801561001057600080fd5b506129c2806100206000396000f3fe608060405234801561001057600080fd5b506004361061009e5760003560e01c8063663b3e2211610066578063663b3e22146101845780637aefaf39146101b8578063b5bad46d146101e8578063c8d8184b14610204578063fc79b0a9146102345761009e565b806303a692b9146100a35780630f9c774d146100d55780631d8ee48a1461010557806345194c07146101365780634851a01d14610166575b600080fd5b6100bd60048036038101906100b891906117a2565b610264565b6040516100cc939291906118af565b60405180910390f35b6100ef60048036038101906100ea91906117a2565b610336565b6040516100fc91906118ed565b60405180910390f35b61011f600480360381019061011a9190611934565b61035a565b60405161012d9291906119d8565b60405180910390f35b610150600480360381019061014b9190611a37565b6103ab565b60405161015d9190611aa5565b60405180910390f35b61016e610733565b60405161017b91906118ed565b60405180910390f35b61019e600480360381019061019991906117a2565b610738565b6040516101af959493929190611c89565b60405180910390f35b6101d260048036038101906101cd91906117a2565b6109e9565b6040516101df91906118ed565b60405180910390f35b61020260048036038101906101fd9190611e26565b610a0d565b005b61021e60048036038101906102199190611f23565b610bca565b60405161022b91906118ed565b60405180910390f35b61024e60048036038101906102499190611fd6565b611160565b60405161025b91906118ed565b60405180910390f35b600260205280600052604060002060009150905080600001549080600101805461028d90612061565b80601f01602080910402602001604051908101604052809291908181526020018280546102b990612061565b80156103065780601f106102db57610100808354040283529160200191610306565b820191906000526020600020905b8154815290600101906020018083116102e957829003601f168201915b5050505050908060020160009054906101000a900473ffffffffffffffffffffffffffffffffffffffff16905083565b6000818154811061034657600080fd5b906000526020600020016000915090505481565b60046020528060005260406000206000915090508060000160009054906101000a900473ffffffffffffffffffffffffffffffffffffffff16908060000160149054906101000a900460ff16905082565b600080600360008581526020019081526020016000206040518060a001604052908160008201548152602001600182016040518060600160405290816000820160009054906101000a900473ffffffffffffffffffffffffffffffffffffffff1673ffffffffffffffffffffffffffffffffffffffff1673ffffffffffffffffffffffffffffffffffffffff1681526020016000820160149054906101000a900460ff16600281111561046157610460611961565b5b600281111561047357610472611961565b5b8152602001600182018054806020026020016040519081016040528092919081815260200182805480156104c657602002820191906000526020600020905b8154815260200190600101908083116104b2575b5050505050815250508152602001600382016040518060600160405290816000820160009054906101000a900473ffffffffffffffffffffffffffffffffffffffff1673ffffffffffffffffffffffffffffffffffffffff1673ffffffffffffffffffffffffffffffffffffffff1681526020016000820160149054906101000a900460ff16600281111561055e5761055d611961565b5b60028111156105705761056f611961565b5b8152602001600182018054806020026020016040519081016040528092919081815260200182805480156105c357602002820191906000526020600020905b8154815260200190600101908083116105af575b50505050508152505081526020016005820180546105e090612061565b80601f016020809104026020016040519081016040528092919081815260200182805461060c90612061565b80156106595780601f1061062e57610100808354040283529160200191610659565b820191906000526020600020905b81548152906001019060200180831161063c57829003601f168201915b505050505081526020016006820160009054906101000a900460ff16600481111561068757610686611961565b5b600481111561069957610698611961565b5b8152505090508273ffffffffffffffffffffffffffffffffffffffff1681602001516000015173ffffffffffffffffffffffffffffffffffffffff16146106df57600080fd5b60006106ef86836060015161131a565b905081602001516000015173ffffffffffffffffffffffffffffffffffffffff168173ffffffffffffffffffffffffffffffffffffffff1614925050509392505050565b600281565b6003602052806000526040600020600091509050806000015490806001016040518060600160405290816000820160009054906101000a900473ffffffffffffffffffffffffffffffffffffffff1673ffffffffffffffffffffffffffffffffffffffff1673ffffffffffffffffffffffffffffffffffffffff1681526020016000820160149054906101000a900460ff1660028111156107dc576107db611961565b5b60028111156107ee576107ed611961565b5b81526020016001820180548060200260200160405190810160405280929190818152602001828054801561084157602002820191906000526020600020905b81548152602001906001019080831161082d575b50505050508152505090806003016040518060600160405290816000820160009054906101000a900473ffffffffffffffffffffffffffffffffffffffff1673ffffffffffffffffffffffffffffffffffffffff1673ffffffffffffffffffffffffffffffffffffffff1681526020016000820160149054906101000a900460ff1660028111156108d5576108d4611961565b5b60028111156108e7576108e6611961565b5b81526020016001820180548060200260200160405190810160405280929190818152602001828054801561093a57602002820191906000526020600020905b815481526020019060010190808311610926575b5050505050815250509080600501805461095390612061565b80601f016020809104026020016040519081016040528092919081815260200182805461097f90612061565b80156109cc5780601f106109a1576101008083540402835291602001916109cc565b820191906000526020600020905b8154815290600101906020018083116109af57829003601f168201915b5050505050908060060160009054906101000a900460ff16905085565b600181815481106109f957600080fd5b906000526020600020016000915090505481565b6000610a18826113f2565b90506000600267ffffffffffffffff811115610a3757610a36611cfb565b5b604051908082528060200260200182016040528015610a655781602001602082028036833780820191505090505b509050600060405180606001604052808673ffffffffffffffffffffffffffffffffffffffff168152602001846002811115610aa457610aa3611961565b5b815260200183815250905080600460008773ffffffffffffffffffffffffffffffffffffffff1673ffffffffffffffffffffffffffffffffffffffff16815260200190815260200160002060008201518160000160006101000a81548173ffffffffffffffffffffffffffffffffffffffff021916908373ffffffffffffffffffffffffffffffffffffffff16021790555060208201518160000160146101000a81548160ff02191690836002811115610b6157610b60611961565b5b02179055506040820151816001019080519060200190610b829291906116ee565b509050507f69f0342a5a3a138c280e0a97ee71e87a6bcd563a2a76c6e0f4cf8a37940662df816000015185604051610bbb929190612092565b60405180910390a15050505050565b600080600460008873ffffffffffffffffffffffffffffffffffffffff1673ffffffffffffffffffffffffffffffffffffffff1681526020019081526020016000206040518060600160405290816000820160009054906101000a900473ffffffffffffffffffffffffffffffffffffffff1673ffffffffffffffffffffffffffffffffffffffff1673ffffffffffffffffffffffffffffffffffffffff1681526020016000820160149054906101000a900460ff166002811115610c9257610c91611961565b5b6002811115610ca457610ca3611961565b5b815260200160018201805480602002602001604051908101604052809291908181526020018280548015610cf757602002820191906000526020600020905b815481526020019060010190808311610ce3575b505050505081525050905060006002811115610d1657610d15611961565b5b81602001516002811115610d2d57610d2c611961565b5b14610d3757600080fd5b6000600460008873ffffffffffffffffffffffffffffffffffffffff1673ffffffffffffffffffffffffffffffffffffffff1681526020019081526020016000206040518060600160405290816000820160009054906101000a900473ffffffffffffffffffffffffffffffffffffffff1673ffffffffffffffffffffffffffffffffffffffff1673ffffffffffffffffffffffffffffffffffffffff1681526020016000820160149054906101000a900460ff166002811115610dfe57610dfd611961565b5b6002811115610e1057610e0f611961565b5b815260200160018201805480602002602001604051908101604052809291908181526020018280548015610e6357602002820191906000526020600020905b815481526020019060010190808311610e4f575b505050505081525050905060016002811115610e8257610e81611961565b5b81602001516002811115610e9957610e98611961565b5b14610ea357600080fd5b6000610eae87611515565b905060008080549050905060006040518060a00160405280838152602001868152602001858152602001888152602001846004811115610ef157610ef0611961565b5b815250905060008080549050908060018154018082558091505060019003906000526020600020016000909190919091505580600360006001600080549050610f3a91906120f1565b81526020019081526020016000206000820151816000015560208201518160010160008201518160000160006101000a81548173ffffffffffffffffffffffffffffffffffffffff021916908373ffffffffffffffffffffffffffffffffffffffff16021790555060208201518160000160146101000a81548160ff02191690836002811115610fcd57610fcc611961565b5b02179055506040820151816001019080519060200190610fee9291906116ee565b50505060408201518160030160008201518160000160006101000a81548173ffffffffffffffffffffffffffffffffffffffff021916908373ffffffffffffffffffffffffffffffffffffffff16021790555060208201518160000160146101000a81548160ff0219169083600281111561106c5761106b611961565b5b0217905550604082015181600101908051906020019061108d9291906116ee565b50505060608201518160050190816110a591906122d1565b5060808201518160060160006101000a81548160ff021916908360048111156110d1576110d0611961565b5b02179055509050508973ffffffffffffffffffffffffffffffffffffffff168b73ffffffffffffffffffffffffffffffffffffffff167f9ac79ef2b7605a00e830228afc81d2b2de741ff81f269d2c1c5dfb5b5790f5ca8460405161113691906118ed565b60405180910390a3600160008054905061115091906120f1565b9550505050505095945050505050565b600080600267ffffffffffffffff81111561117e5761117d611cfb565b5b6040519080825280602002602001820160405280156111ac5781602001602082028036833780820191505090505b50905060006001805490509050600060405180608001604052808381526020018781526020018673ffffffffffffffffffffffffffffffffffffffff168152602001848152509050806002600084815260200190815260200160002060008201518160000155602082015181600101908161122791906123fe565b5060408201518160020160006101000a81548173ffffffffffffffffffffffffffffffffffffffff021916908373ffffffffffffffffffffffffffffffffffffffff160217905550606082015181600301908051906020019061128b9291906116ee565b509050506001829080600181540180825580915050600190039060005260206000200160009091909190915055806040015173ffffffffffffffffffffffffffffffffffffffff167f78188bcc408cd7b91ccb6a30160618791920ec653406a2609aa5e1cdfc85c3a5826000015160405161130691906118ed565b60405180910390a281935050505092915050565b600080600080611329856116bc565b92509250925060006040518060400160405280601c81526020017f19457468657265756d205369676e6564204d6573736167653a0a33320000000081525090506000818860405160200161137e92919061252d565b604051602081830303815290604052805190602001209050600181868686604051600081526020016040526040516113b99493929190612580565b6020604051602081039080840390855afa1580156113db573d6000803e3d6000fd5b505050602060405103519550505050505092915050565b600080826040516020016114069190612601565b604051602081830303815290604052805190602001209050600060405160200161142f90612664565b6040516020818303038152906040528051906020012090506000604051602001611458906126c5565b604051602081830303815290604052805190602001209050600060405160200161148190612726565b6040516020818303038152906040528051906020012090508284036114ad576000945050505050611510565b8184036114c1576001945050505050611510565b8084036114d5576002945050505050611510565b6040517f08c379a000000000000000000000000000000000000000000000000000000000815260040161150790612787565b60405180910390fd5b919050565b600080826040516020016115299190612601565b6040516020818303038152906040528051906020012090506000604051602001611552906127f3565b604051602081830303815290604052805190602001209050600060405160200161157b90612854565b60405160208183030381529060405280519060200120905060006040516020016115a4906128b5565b60405160208183030381529060405280519060200120905060006040516020016115cd90612916565b60405160208183030381529060405280519060200120905060006040516020016115f690612977565b60405160208183030381529060405280519060200120905084860361162457600096505050505050506116b7565b83860361163a57600196505050505050506116b7565b82860361165057600296505050505050506116b7565b81860361166657600396505050505050506116b7565b80860361167c57600496505050505050506116b7565b6040517f08c379a00000000000000000000000000000000000000000000000000000000081526004016116ae90612787565b60405180910390fd5b919050565b600080600060418451146116cf57600080fd5b6020840151915060408401519050606084015160001a92509193909250565b82805482825590600052602060002090810192821561172a579160200282015b8281111561172957825182559160200191906001019061170e565b5b509050611737919061173b565b5090565b5b8082111561175457600081600090555060010161173c565b5090565b6000604051905090565b600080fd5b600080fd5b6000819050919050565b61177f8161176c565b811461178a57600080fd5b50565b60008135905061179c81611776565b92915050565b6000602082840312156117b8576117b7611762565b5b60006117c68482850161178d565b91505092915050565b6117d88161176c565b82525050565b600081519050919050565b600082825260208201905092915050565b60005b838110156118185780820151818401526020810190506117fd565b60008484015250505050565b6000601f19601f8301169050919050565b6000611840826117de565b61184a81856117e9565b935061185a8185602086016117fa565b61186381611824565b840191505092915050565b600073ffffffffffffffffffffffffffffffffffffffff82169050919050565b60006118998261186e565b9050919050565b6118a98161188e565b82525050565b60006060820190506118c460008301866117cf565b81810360208301526118d68185611835565b90506118e560408301846118a0565b949350505050565b600060208201905061190260008301846117cf565b92915050565b6119118161188e565b811461191c57600080fd5b50565b60008135905061192e81611908565b92915050565b60006020828403121561194a57611949611762565b5b60006119588482850161191f565b91505092915050565b7f4e487b7100000000000000000000000000000000000000000000000000000000600052602160045260246000fd5b600381106119a1576119a0611961565b5b50565b60008190506119b282611990565b919050565b60006119c2826119a4565b9050919050565b6119d2816119b7565b82525050565b60006040820190506119ed60008301856118a0565b6119fa60208301846119c9565b9392505050565b6000819050919050565b611a1481611a01565b8114611a1f57600080fd5b50565b600081359050611a3181611a0b565b92915050565b600080600060608486031215611a5057611a4f611762565b5b6000611a5e86828701611a22565b9350506020611a6f8682870161178d565b9250506040611a808682870161191f565b9150509250925092565b60008115159050919050565b611a9f81611a8a565b82525050565b6000602082019050611aba6000830184611a96565b92915050565b611ac98161188e565b82525050565b611ad8816119b7565b82525050565b600081519050919050565b600082825260208201905092915050565b6000819050602082019050919050565b611b138161176c565b82525050565b6000611b258383611b0a565b60208301905092915050565b6000602082019050919050565b6000611b4982611ade565b611b538185611ae9565b9350611b5e83611afa565b8060005b83811015611b8f578151611b768882611b19565b9750611b8183611b31565b925050600181019050611b62565b5085935050505092915050565b6000606083016000830151611bb46000860182611ac0565b506020830151611bc76020860182611acf565b5060408301518482036040860152611bdf8282611b3e565b9150508091505092915050565b600081519050919050565b600082825260208201905092915050565b6000611c1382611bec565b611c1d8185611bf7565b9350611c2d8185602086016117fa565b611c3681611824565b840191505092915050565b60058110611c5257611c51611961565b5b50565b6000819050611c6382611c41565b919050565b6000611c7382611c55565b9050919050565b611c8381611c68565b82525050565b600060a082019050611c9e60008301886117cf565b8181036020830152611cb08187611b9c565b90508181036040830152611cc48186611b9c565b90508181036060830152611cd88185611c08565b9050611ce76080830184611c7a565b9695505050505050565b600080fd5b600080fd5b7f4e487b7100000000000000000000000000000000000000000000000000000000600052604160045260246000fd5b611d3382611824565b810181811067ffffffffffffffff82111715611d5257611d51611cfb565b5b80604052505050565b6000611d65611758565b9050611d718282611d2a565b919050565b600067ffffffffffffffff821115611d9157611d90611cfb565b5b611d9a82611824565b9050602081019050919050565b82818337600083830152505050565b6000611dc9611dc484611d76565b611d5b565b905082815260208101848484011115611de557611de4611cf6565b5b611df0848285611da7565b509392505050565b600082601f830112611e0d57611e0c611cf1565b5b8135611e1d848260208601611db6565b91505092915050565b60008060408385031215611e3d57611e3c611762565b5b6000611e4b8582860161191f565b925050602083013567ffffffffffffffff811115611e6c57611e6b611767565b5b611e7885828601611df8565b9150509250929050565b600067ffffffffffffffff821115611e9d57611e9c611cfb565b5b611ea682611824565b9050602081019050919050565b6000611ec6611ec184611e82565b611d5b565b905082815260208101848484011115611ee257611ee1611cf6565b5b611eed848285611da7565b509392505050565b600082601f830112611f0a57611f09611cf1565b5b8135611f1a848260208601611eb3565b91505092915050565b600080600080600060a08688031215611f3f57611f3e611762565b5b6000611f4d8882890161191f565b9550506020611f5e8882890161191f565b945050604086013567ffffffffffffffff811115611f7f57611f7e611767565b5b611f8b88828901611df8565b9350506060611f9c8882890161178d565b925050608086013567ffffffffffffffff811115611fbd57611fbc611767565b5b611fc988828901611ef5565b9150509295509295909350565b60008060408385031215611fed57611fec611762565b5b600083013567ffffffffffffffff81111561200b5761200a611767565b5b61201785828601611df8565b92505060206120288582860161191f565b9150509250929050565b7f4e487b7100000000000000000000000000000000000000000000000000000000600052602260045260246000fd5b6000600282049050600182168061207957607f821691505b60208210810361208c5761208b612032565b5b50919050565b60006040820190506120a760008301856118a0565b81810360208301526120b98184611835565b90509392505050565b7f4e487b7100000000000000000000000000000000000000000000000000000000600052601160045260246000fd5b60006120fc8261176c565b91506121078361176c565b925082820390508181111561211f5761211e6120c2565b5b92915050565b60008190508160005260206000209050919050565b60006020601f8301049050919050565b600082821b905092915050565b6000600883026121877fffffffffffffffffffffffffffffffffffffffffffffffffffffffffffffffff8261214a565b612191868361214a565b95508019841693508086168417925050509392505050565b6000819050919050565b60006121ce6121c96121c48461176c565b6121a9565b61176c565b9050919050565b6000819050919050565b6121e8836121b3565b6121fc6121f4826121d5565b848454612157565b825550505050565b600090565b612211612204565b61221c8184846121df565b505050565b5b8181101561224057612235600082612209565b600181019050612222565b5050565b601f8211156122855761225681612125565b61225f8461213a565b8101602085101561226e578190505b61228261227a8561213a565b830182612221565b50505b505050565b600082821c905092915050565b60006122a86000198460080261228a565b1980831691505092915050565b60006122c18383612297565b9150826002028217905092915050565b6122da82611bec565b67ffffffffffffffff8111156122f3576122f2611cfb565b5b6122fd8254612061565b612308828285612244565b600060209050601f83116001811461233b5760008415612329578287015190505b61233385826122b5565b86555061239b565b601f19841661234986612125565b60005b828110156123715784890151825560018201915060208501945060208101905061234c565b8683101561238e578489015161238a601f891682612297565b8355505b6001600288020188555050505b505050505050565b60008190508160005260206000209050919050565b601f8211156123f9576123ca816123a3565b6123d38461213a565b810160208510156123e2578190505b6123f66123ee8561213a565b830182612221565b50505b505050565b612407826117de565b67ffffffffffffffff8111156124205761241f611cfb565b5b61242a8254612061565b6124358282856123b8565b600060209050601f8311600181146124685760008415612456578287015190505b61246085826122b5565b8655506124c8565b601f198416612476866123a3565b60005b8281101561249e57848901518255600182019150602085019450602081019050612479565b868310156124bb57848901516124b7601f891682612297565b8355505b6001600288020188555050505b505050505050565b600081905092915050565b60006124e682611bec565b6124f081856124d0565b93506125008185602086016117fa565b80840191505092915050565b6000819050919050565b61252761252282611a01565b61250c565b82525050565b600061253982856124db565b91506125458284612516565b6020820191508190509392505050565b61255e81611a01565b82525050565b600060ff82169050919050565b61257a81612564565b82525050565b60006080820190506125956000830187612555565b6125a26020830186612571565b6125af6040830185612555565b6125bc6060830184612555565b95945050505050565b600081905092915050565b60006125db826117de565b6125e581856125c5565b93506125f58185602086016117fa565b80840191505092915050565b600061260d82846125d0565b915081905092915050565b7f4953535545520000000000000000000000000000000000000000000000000000600082015250565b600061264e6006836125c5565b915061265982612618565b600682019050919050565b600061266f82612641565b9150819050919050565b7f50524f5645520000000000000000000000000000000000000000000000000000600082015250565b60006126af6006836125c5565b91506126ba82612679565b600682019050919050565b60006126d0826126a2565b9150819050919050565b7f5645524946494552000000000000000000000000000000000000000000000000600082015250565b60006127106008836125c5565b915061271b826126da565b600882019050919050565b600061273182612703565b9150819050919050565b7f726563656976656420696e76616c696420656e74697479206d6f646500000000600082015250565b6000612771601c836117e9565b915061277c8261273b565b602082019050919050565b600060208201905081810360008301526127a081612764565b9050919050565b7f4d414e5546414354555245440000000000000000000000000000000000000000600082015250565b60006127dd600c836125c5565b91506127e8826127a7565b600c82019050919050565b60006127fe826127d0565b9150819050919050565b7f44454c49564552494e475f494e5445524e4154494f4e414c0000000000000000600082015250565b600061283e6018836125c5565b915061284982612808565b601882019050919050565b600061285f82612831565b9150819050919050565b7f53544f5245440000000000000000000000000000000000000000000000000000600082015250565b600061289f6006836125c5565b91506128aa82612869565b600682019050919050565b60006128c082612892565b9150819050919050565b7f44454c49564552494e475f4c4f43414c00000000000000000000000000000000600082015250565b60006129006010836125c5565b915061290b826128ca565b601082019050919050565b6000612921826128f3565b9150819050919050565b7f44454c4956455245440000000000000000000000000000000000000000000000600082015250565b60006129616009836125c5565b915061296c8261292b565b600982019050919050565b600061298282612954565b915081905091905056fea2646970667358221220247c65468be00672f5f58daa131c95dd4ae4da85483b563bf8b2824e3a1076f764736f6c63430008130033",
  "immutableReferences": {},
  "source": "// SPDX-License-Identifier: MIT\npragma solidity >=0.7.0 <0.9.0;\n\n/**\n * @notice I know its preferably to follow EIP-712 standard for signatures, but I wanted to briefly learn how it works\n */\nlibrary CryptoSuite {\n    function splitSignature(\n        bytes memory sig\n    ) internal pure returns (uint8 v, bytes32 r, bytes32 s) {\n        require(sig.length == 65);\n\n        assembly {\n            // first 32bytes\n            r := mload(add(sig, 32))\n\n            // next 32bytes\n            s := mload(add(sig, 64))\n\n            // next 32bytes\n            v := byte(0, mload(add(sig, 96)))\n        }\n\n        return (v, r, s);\n    }\n\n    function recoverSigner(\n        bytes32 message,\n        bytes memory m_sig\n    ) internal pure returns (address) {\n        (uint8 v, bytes32 r, bytes32 s) = splitSignature(m_sig);\n        bytes memory m_prefix = \"\\x19Ethereum Signed Message:\\n32\";\n        bytes32 prefixedHash = keccak256(abi.encodePacked(m_prefix, message));\n\n        return ecrecover(prefixedHash, v, r, s);\n    }\n}\n\ncontract ColdChain {\n    enum Mode {\n        ISSUER,\n        PROVER,\n        VERIFIER\n    }\n    enum Status {\n        MANUFACTURED,\n        DELIVERING_INTERNATIONAL,\n        STORED,\n        DELIVERING_LOCAL,\n        DELIVERED\n    }\n    struct Entity {\n        address id;\n        Mode mode;\n        uint[] certificateIds;\n    }\n    struct Certificate {\n        uint id;\n        Entity issuer;\n        Entity prover;\n        bytes signature;\n        Status status;\n    }\n    struct VaccineBatch {\n        uint id;\n        string brand;\n        address manufacturer;\n        uint[] certificateIds;\n    }\n\n    uint public constant MAX_CERTIFICATIONS = 2;\n\n    uint[] public certificateIds;\n    uint[] public vaccineBatchIds;\n\n    mapping(uint => VaccineBatch) public vaccineBatches;\n    mapping(uint => Certificate) public certificates;\n    mapping(address => Entity) public entities;\n\n    event AddEntityEvent(address entityId, string entityMode);\n    event AddVaccineBatchEvent(\n        uint vaccineBatchId,\n        address indexed manufacturer\n    );\n    event IssueCertificateEvent(\n        address indexed issuer,\n        address indexed prover,\n        uint certificateId\n    );\n\n    function addEntity(address _id, string memory m_mode) public {\n        Mode mode = unmarshalMode(m_mode);\n        uint[] memory m_certificatesIds = new uint[](MAX_CERTIFICATIONS);\n        Entity memory m_entity = Entity(_id, mode, m_certificatesIds);\n\n        entities[_id] = m_entity;\n\n        emit AddEntityEvent(m_entity.id, m_mode);\n    }\n\n    function unmarshalMode(string memory m_mode) private pure returns (Mode) {\n        bytes32 encodedMode = keccak256(abi.encodePacked(m_mode));\n        bytes32 encodedMode0 = keccak256(abi.encodePacked(\"ISSUER\"));\n        bytes32 encodedMode1 = keccak256(abi.encodePacked(\"PROVER\"));\n        bytes32 encodedMode2 = keccak256(abi.encodePacked(\"VERIFIER\"));\n\n        if (encodedMode == encodedMode0) {\n            return Mode.ISSUER;\n        } else if (encodedMode == encodedMode1) {\n            return Mode.PROVER;\n        } else if (encodedMode == encodedMode2) {\n            return Mode.VERIFIER;\n        }\n\n        revert(\"received invalid entity mode\");\n    }\n\n    function addVaccineBatch(\n        string memory m_brand,\n        address _manufacturer\n    ) public returns (uint) {\n        uint[] memory m_certificatesIds = new uint[](MAX_CERTIFICATIONS);\n        uint id = vaccineBatchIds.length;\n        VaccineBatch memory batch = VaccineBatch(\n            id,\n            m_brand,\n            _manufacturer,\n            m_certificatesIds\n        );\n\n        vaccineBatches[id] = batch;\n        vaccineBatchIds.push(id);\n\n        emit AddVaccineBatchEvent(batch.id, batch.manufacturer);\n        return id;\n    }\n\n    function issueCertificate(\n        address _issuer,\n        address _prover,\n        string memory m_status,\n        uint vaccineBatchId,\n        bytes memory m_signature\n    ) public returns (uint) {\n        Entity memory m_issuer = entities[_issuer];\n        require(m_issuer.mode == Mode.ISSUER);\n\n        Entity memory m_prover = entities[_prover];\n        require(m_prover.mode == Mode.PROVER);\n\n        Status status = unmarshalStatus(m_status);\n\n        uint id = certificateIds.length;\n        Certificate memory certificate = Certificate(\n            id,\n            m_issuer,\n            m_prover,\n            m_signature,\n            status\n        );\n\n        certificateIds.push(certificateIds.length);\n        certificates[certificateIds.length - 1] = certificate;\n\n        emit IssueCertificateEvent(_issuer, _prover, id);\n\n        return certificateIds.length - 1;\n    }\n\n    function unmarshalStatus(\n        string memory m_status\n    ) private pure returns (Status) {\n        bytes32 encodedStatus = keccak256(abi.encodePacked(m_status));\n        bytes32 encodedStatus0 = keccak256(abi.encodePacked(\"MANUFACTURED\"));\n        bytes32 encodedStatus1 = keccak256(\n            abi.encodePacked(\"DELIVERING_INTERNATIONAL\")\n        );\n        bytes32 encodedStatus2 = keccak256(abi.encodePacked(\"STORED\"));\n        bytes32 encodedStatus3 = keccak256(\n            abi.encodePacked(\"DELIVERING_LOCAL\")\n        );\n        bytes32 encodedStatus4 = keccak256(abi.encodePacked(\"DELIVERED\"));\n\n        if (encodedStatus == encodedStatus0) {\n            return Status.MANUFACTURED;\n        } else if (encodedStatus == encodedStatus1) {\n            return Status.DELIVERING_INTERNATIONAL;\n        } else if (encodedStatus == encodedStatus2) {\n            return Status.STORED;\n        } else if (encodedStatus == encodedStatus3) {\n            return Status.DELIVERING_LOCAL;\n        } else if (encodedStatus == encodedStatus4) {\n            return Status.DELIVERED;\n        }\n\n        revert(\"received invalid entity mode\");\n    }\n\n    function isMatchingSignature(\n        bytes32 message,\n        uint id,\n        address issuer\n    ) public view returns (bool) {\n        Certificate memory m_certificate = certificates[id];\n        require(m_certificate.issuer.id == issuer);\n\n        address recoveredSigner = CryptoSuite.recoverSigner(\n            message,\n            m_certificate.signature\n        );\n\n        return recoveredSigner == m_certificate.issuer.id;\n    }\n}\n",
  "sourcePath": "/Users/Sebastian_Jarmul/dev/learn-supplychain/truffle/contracts/ColdChain.sol",
  "compiler": {
    "name": "solc",
    "version": "0.8.19+commit.7dd6d404.Emscripten.clang"
  },
  "schemaVersion": "3.4.13",
  "updatedAt": "2023-05-16T14:16:41.948Z",
  "networkType": "ethereum",
  "devdoc": {
    "kind": "dev",
    "methods": {},
    "version": 1
  },
  "userdoc": {
    "kind": "user",
    "methods": {},
    "version": 1
  }
}